:100000000EEF00F0FF00FF0004EF10F0FF00FF0014
:10001000FF00FF00FF00FF000CEF10F04EEF0AF0B2
:100020004F6E2D5001E1E7D04F0E356EE9EC09F02F
:10003000000901E0E0D02D6A0D0C0D0E4F18D8B468
:100040000B0C0A0E4F1801E10B0C3A0E4F18F3E19E
:100050000001A46B166A020E156E2C6A010E2D6E3D
:100060000B0C2C38F00B4F102C6EE6D8D8A40B0CD0
:10007000100E2C6401D0DFD72C500001A427166A83
:10008000040E156E176A186A020EE9D7E1D8C8D8AF
:10009000176E4C50186ED0D8D8A40B0C1850000115
:1000A000A4271750A427166A020E156E2B6A030E9A
:1000B000D6D7C2D8D8A40B0C4FC02BF02B500001C0
:1000C000A42710D0166A020E156E2A6AA36B040EBE
:1000D000C6D7C8D82CD0166A040E156E996B9A6BC9
:1000E000050EBDD72B50EEE0010AF3E0050AF3E060
:1000F000A2D7A8D806E14FC0A3F00001A33BF00EA1
:10010000A31715501610D8A40B0C4F500001A313C1
:10011000A4D8A3C0DFFFA1D8DF50A4272A2A166ADB
:10012000020E156E2C502A18D8A40B0C0001A56BDA
:100130000A0E95D799C04BF09AC04CF071D80001C7
:10014000996F4C509A6F78D8D8A40B0C9951A4276A
:10015000100E4B6E99C04CF09AC04DF04E6A4B2871
:1001600004D0D8904C364D364E36E82EFAD74CC0D7
:1001700092F04DC093F04EC094F074D8D7D762D8A7
:1001800006E14FC0A5F00001A53BF00EA5171550E4
:100190001610D8A40B0C4F500001A513A551A4278D
:1001A000A45101E048D720D053D84D6A92514B2436
:1001B0003E6E93514C203F6E94514D20406EE70EA1
:1001C000416E2CC042F075EC05F0000901E133D717
:1001D00010D02F5007E0E6EC05F0AAEC08F000097B
:1001E00001E129D72D6A0C0C2B50DEE0010AF1E069
:1001F000050A2D6A0B0C2D5001E11FD7010A01E100
:1002000030D7030A01E142D7010A01E152D7070AB8
:1002100001E16FD7010A8EE00F0AD8A40B0CAFD70B
:100220004B3A4C3AF00E4C164B500F0B4C12F00E52
:100230004B164F504B1012001506D8A0160615503D
:10024000161012001506D8A0160615041610120076
:1002500017C04BF018C04CF012002A50E70FD96EAF
:10026000DA6A1200166A020E156E020C2C0E356E3A
:10027000040E366E680E376E386A1F0E396E61ECEA
:100280000BF01BEC0BF0000901E0EFD01200280E80
:100290007719010ED8A4020E496E7FC009F07EC006
:1002A0000AF009500A1008E1000E3B6E3C6E3D6EEC
:1002B0003E6E3F6E27EF09F0ECD809500524456EDD
:1002C0000A500620466E000E0720476E000E0820DA
:1002D000486E4850471005E1140E455C100E465814
:1002E00007E3050E9E6F210E9D6F9C6B34EF0BF0A4
:1002F0000950456E0A50466E476A486A090ED89002
:100300004536463647364836E82EF9D745C00BF015
:1003100046C00CF047C00DF048C00EF00BC03BF0DB
:100320000CC03CF00DC03DF00EC03EF049C03FF0A7
:1003300027EC09F0000901E11200196A1A6A020E9D
:10034000491805E167EC0CF0050E226E050C9FECD8
:100350000BF0030E226E030C1E50A6E01E6A92ECF8
:100360000CF034EF0BF07BC00FF0106A0F50101040
:100370009BE0105003E1130E0F5C03E3106A120EB2
:100380000F6E44EC03F00FC037F010C038F0000ED1
:10039000B3EC0BF0700E04016C6F9EC06EF40A0E8D
:1003A000736F9DC078F49CC079F42FD07BC00FF0A0
:1003B0007AC010F00F50101001E176D7105003E111
:1003C000250E0F5C03E3106A240E0F6E620E356E6D
:1003D0007F0E2AEC03F00FC03AF00CEC0AF015D0B7
:1003E0007BC00FF0106A0F50101001E15DD7105064
:1003F00003E1050E0F5C03E3106A040E0F6E030E9B
:1004000004016C6F6D6B6E6B6F6B0F502DEF0AF00C
:1004100079517A117B117C1106E07FB104D0050E71
:100420009E6F240E61D735D80450031005E1130EDA
:10043000015C100E025806E304016C696D696E6977
:100440006F6907D004016C6B6D6B100E6E6F120E2E
:100450006F6F706B716B020E726F736B080E2DEF06
:100460000AF0A5EC0CF034EF0BF00001775101E13C
:1004700073D7030A01E177D7110A98E0080AB0E0C0
:100480003F0AC6E00D0A01E102D7020A01E1FFD6E8
:10049000E8D77CC001F07BC002F07AC003F079C0DD
:1004A00004F001C005F002C006F003C007F004C06C
:1004B00008F01200E9D8386A400E376E000EB3EC2F
:1004C0000BF0055006100710081015E119501A100E
:1004D00006E1F80E356E7E0EBDD83E0E7ED0C00E03
:1004E000191802E11A04D8A41200550E0401AA6FCB
:1004F000AA0EAB6FAA0C050406100710081002E143
:100500005BEF06F0120EBBD84AE119501A101FE13A
:10051000360E356E7F0E9ED80B0E3A6E0CEC0AF03E
:10052000080E0401776F22EC0CF00401726F410E8B
:10053000356E7F0E366E98D80CEC0AF0210E040151
:10054000976F020EA66F510EA86FA96B1200400E96
:1005500019181A10D8A412004C0E356E7F0E7AD8D6
:100560000B0E3A6E0CEC0AF0200E0401776F030EAE
:10057000866F886B010E896F3050D8B41200570E09
:10058000356E7F0E366E70D80CEC0AF0210E040129
:10059000976F040EA66FA86B600EA96F600C0850D1
:1005A0000710061004E1130E055CD8A01200130E0C
:1005B00066D816E119501A1006E1A70E356E7E0EA8
:1005C00049D8400E0AD0400E19181A10D8A41200AB
:1005D000E70E356E7E0E3ED8110E3A6E0CEF0AF025
:1005E000140E4DD811E1446A6C0E4424D96EDA6AB7
:1005F000040EDA22445019245EEC0CF0DF6E442A1B
:100600003F0E4464F1D73F0C05C035F006C036F00C
:1006100007C037F008C038F0C0EC09F03550416E23
:1006200036C042F037C043F0435003E1800E425CD5
:10063000D8B0120041C035F042C036F043C037F0A8
:10064000400E386E396A3A6A6C0E3B6E040E3C6E90
:1006500095EF09F0366E3510D8A4000E376E6C0E8B
:10066000386E040E396E040C3510D8A4000E376EA7
:100670008C0E386E040E396E0B0E3A6E0B0C05188C
:1006800006100710081012006C0E356E040E366E40
:10069000040C2E505EE10150051837E10250061897
:1006A00034E10350071831E1045008182EE10850D6
:1006B0000710061003E1130E055C27E3140E3FEC50
:1006C00003F012E11A0421E2516A526A6BD8356EC6
:1006D00019505124DAEC0BF0514A522A525015E1CC
:1006E000400E515C12E2F2D719501A100EE13A0E88
:1006F00004012C190AE1305002E042EC0CF0CBEC82
:1007000005F0B3EC0BF0010E2E6E120E3FEC03F071
:1007100020E1400E19181A101CE1305009E00401C4
:100720004C5103E0E50E4C1903E142EC0CF042D8C9
:1007300004012C5103E0E50E2C190BE1516A526AB9
:1007400035685150DAEC0BF0514A522A5204F8E362
:1007500031D82E04D8A4120008500710061004E166
:10076000130E055CD8A01200516A526A1BD810EC17
:1007700000F0506E0B0E50180BE00D0E501802E1F9
:1007800042EC0CF0020E2E6E010E0001A66F010C61
:10079000514A522A525005E1400E515CD8B0120025
:1007A000E5D712002C0E5124D96E040E5220DA6EB9
:1007B000DF501200010E0001A66F010C010E4A6EFF
:1007C00045D0DA0E8F6F7F0E906F8F11D8A4000E78
:1007D000916F986B120E976F4A6A42D0625140E156
:1007E0006FD860D874D86CD85DD844C047F045C085
:1007F00048F046C049F0020E4724F66E000E48202D
:10080000F76E000E4920F86E0900F5CF97F00A0048
:10081000F5CF98F0E1D7080E626122D06251020D47
:100820009D0EF324F66E7E0E3DD851D88FC0F6FF94
:1008300090C0F7FF91C0F8FF0800F550976F986BD4
:10084000CBD7CBEC0CF00009C7E10AD00001635113
:10085000010AB7E0030AC2E0010ADDE0050AF1E19E
:100860004A5004E067EC05F02DEF0CF06651975DFF
:10087000675198590DE297C013F098C014F097C0D3
:1008800042F0070E421601E007D0010EA16F05D01D
:1008900066C013F067C014F0A16B286ABCEC06F0C8
:1008A000D7EF0BF0F420F76E0900F5CF42F0090006
:1008B000F5CF43F042C044F043C045F0466A120011
:1008C0006251020DA50EF324F66E7E0E120044C096
:1008D0008FF045C090F046C091F01200700ED31218
:1008E0009B8ED2882F0E356EC00EE82EFED7352E89
:1008F000FCD7B588B58E856A969E9686F19E9C0E2D
:10090000536ED70EE82EFED7532EFCD700F09C0E68
:10091000536ED70EE82EFED7532EFCD700F09C0E58
:10092000536ED70EE82EFED7532EFCD700F09C0E48
:10093000536ED70EE82EFED7532EFCD700F09C0E38
:10094000536ED70EE82EFED7532EFCD700F076EC70
:100950000BF084A602D0305024E184A6FED79C0E72
:10096000536ED70EE82EFED7532EFCD700F09C0E08
:10097000536ED70EE82EFED7532EFCD700F0929878
:1009800089880001A66BB6EC0CF0EDEC05F01FECCD
:1009900008F00001A65116E184B6F7D7305010E1F7
:1009A000F4D7F16885689668B56AD2989B9E300E38
:1009B000D36E00EF10F004D0EDEC05F01FEC08F062
:1009C00084A6FAD7EDEC05F01FEC08F00001A22B8D
:1009D000080E536ECA0EE82EFED7532EFCD7C80E53
:1009E0000001A219EFE1FF000EEF00F0010E3E6ED4
:1009F000040E25185EE0060E25185BE060D0620547
:100A000063115DE1610502E1279201D027823E6A10
:100A100056D06251631153E1060E251808E1645166
:100A20000F0B3B6E020E3B6005D03E6A03D0645153
:100A30000F0BFBE03E5043E164510F0B0BE16105EE
:100A400004E132920401086B3AD0328240D82DEC96
:100A50000CF035D064AF03D03B6A3B2A01D03B6A2F
:100A60003BD83B243C6E3C283D6E61050BE1645154
:100A70000F0B386E000E64BF010E396E3D5082ECD4
:100A80000CF01DD064AF03D03B6A3B2A01D03B6A17
:100A900023D8310F3B24D96EDA6ADF823D50040D32
:100AA000000EF324356E040EF420366E2DEC0CF09F
:100AB00006D0000160511F0BA2E0020AAAE03E50DE
:100AC00003E005D82DEF0CF099EC0CF00BD0080EDC
:100AD000356E040E366E040C000164510F0B020DCE
:100AE000F3501200030E246E030C3E503F0B4A6E6F
:100AF000C00E3E14456E3F50466E4050476EF75153
:100B0000451806E1F851461803E1F95147180BE082
:100B10002F5009E05BD8AAEC08F0000901E1000CB5
:100B20003AD8B3EC0BF0486A496A06D03BD8400E7D
:100B30004A1804E0484A492A41D8F8E3400E4A18C6
:100B400021E145C03AF046C03BF047C03CF0AAEC7A
:100B500008F0000901E1000C1ED8B3EC0BF04A6A62
:100B6000484A492A4250485C000E495804E305D0DF
:100B700019D8484A492A22D8FBE3400E4526000EE0
:100B8000462247224AC02FF045C0F7F046C0F8F091
:100B900047C0F9F0010CA70E356E366A386A400E70
:100BA000376EFF0C4150D96EDA6A4A50A70FE16EDA
:100BB000E26ADFCFE7FF4A2A412A12004250436E21
:100BC000446A4350485C445049581200F7C03AF018
:100BD000F8C03BF0F9C03CF0120065B464A40BD03F
:100BE0006494050E251805E160929FC025F001D0A0
:100BF000659465B4FDD7050E251801E1120065A0C6
:100C000008D0020E251802E073EC07F0030E256EE3
:100C1000659065A807D06484608225C09FF0050EAA
:100C2000256E6598030E256043D0030C00F000F09C
:100C300061CF29F065961DEC0CF038E129B41CD089
:100C400029A202D0318401D03194010E29A2000ED4
:100C5000A2EC0AF00401DF30E8320F0B0D0A03E1C9
:100C6000C9EC07F025D0020E241803E1317067ECBF
:100C700008F08CEC0AF01CD0240404E13270BCECC7
:100C800006F016D08CEC0AF00001A05111E026C04D
:100C900063FF030E251805E1265003E0040E256EC0
:100CA00003D0265001E16580A06B02D017EC0CF058
:100CB00065A61200BBD76C0E3B6E040E3C6E19503D
:100CC0001A1015E13BC0D9FF3CC0DAFFF80EDE6E0A
:100CD000DD6820EE02F043D820EE04F040D820EE8C
:100CE00006F03DD8000E3A6E040E396E07D0D8904B
:100CF0001A30356E1930396E35C03AF0305001E196
:100D000012003A502BE1350E395C01E312001F0E40
:100D10003914376E386A385021E11BD0330E391838
:100D20003A1003E123D81BD8FF0C3928356E000E8A
:100D30003A20366E1BD83B50D9263C50DA2235C0BB
:100D4000DEFF36C0DDFF394A3A2A374A382A3850A2
:100D500005E1200E375CD8B01200E0D712003B50FE
:100D6000D9263C50DA22DE68DD681200D89037348C
:100D7000D96E3834DA6E12001350141034E0145067
:100D800003E1090E135C1CE328500CE136D8080E71
:100D90003A6E0CEC0AF00001080E8F27000E90232B
:100DA000912306D03AD8080E396E61EC0BF03ED88C
:100DB000080E38EC0CF0080E135E000E145A000CEE
:100DC000285006E11AD813C03AF00CEC0AF005D00E
:100DD00024D813C039F061EC0BF0135038EC0CF050
:100DE000136A146A12000001A151D8B41200000E57
:100DF00038EC0CF00001A16B12008FC03FF090C0E6
:100E000040F0416A3FC035F040C036F041C037F095
:100E1000240E386E040E396E040C11C035F012C069
:100E200036F0240E376E040E386E040C080E1126B0
:100E3000000E1222000C010E3F6E3D6A040E2518B2
:100E400033E0060E251830E037D027A002D03D80D1
:100E500001D03D9027A202D03E8001D03E903F6A53
:100E60002BD0040E251805E164510F0B09E13F6AF0
:100E700007D064510F0B3C6E020E3C6001D0F7D7D7
:100E80003F501AE164AF03D03C6A3C2A01D03C6A6F
:100E90006CEC05F0310F3C24D96EDA6ADFA202D087
:100EA0003D8001D03D9008D0000160511F0BCDE086
:100EB000010AD5E0030AD5E03F5004E067EC05F0F5
:100EC0002DEF0CF0240E356E040E366E386A080EC7
:100ED000376E000EB3EC0BF03DC024F4020E38EC7C
:100EE0000CF0D7EF0BF0646A666A656A676A6A6A33
:100EF000080E6B6E636A27902792150E626E356A34
:100F0000040E366E386A140E376E000EB3EC0BF01A
:100F1000040E0401036F140E026F040E076F1C0E03
:100F2000066F040E0B6F240E0A6F310E356E366A93
:100F3000386A040E376E000EB3EC0BF03C6A3C507E
:100F400019EC09F03C5020EC09F03C2A010E3C64FD
:100F5000F6D70001A06BA16B236A01D0659665B638
:100F6000FDD76098160E6A6E255007E16086010E67
:100F7000256E60BAFED7020E256E246A608C00F0E2
:100F800000F000F000F0609C8CEC0AF031948CEFE3
:100F90000AF0086B29A205D01C0E48D861EC0BF0B2
:100FA00004D0140E43D861EC0BF060988CEC0AF07E
:100FB0003180328000016039E832030B05E031D026
:100FC00067EC05F02DEF0CF0615102E11BEF07F02B
:100FD000010A02E1F6EF04F0020A02E1F6EF04F082
:100FE000060A02E155EF0CF0030A02E1DEEF03F01E
:100FF000010A02E1B2EF0CF00F0A02E109EF0CF076
:10100000010A02E1EAEF08F0030A02E1C7EF0BF080
:10101000010A02E1FBEF0BF0070A02E1AEEF0CF070
:10102000CFD7C1EC0CF00009CBE01200356E040EF6
:10103000366E600E376E386A080E396E080CA3944F
:101040001D5035E01B50870FD96EDA6A0001DFB4FE
:101050000DD0337006D061EC09F022D036EC01F0EF
:101060001FD02250FBE0050AF6E01AD0347011D0F0
:101070009FEC0BF015D0215006E079EC0CF0216AC2
:10108000060E226E0DD04BEC0BF00AD0BAEC0CF031
:1010900007D02250010AEFE0030AF8E0010AE8E075
:1010A0001B2A040E1B1801E11B6A1D060ED01F50DF
:1010B0000CE0070E221803E1BAEC0CF005D0060E86
:1010C000221802E14BEC0BF01F6AA384120000010E
:1010D000965103E1090E955D19E329B207D0140E6C
:1010E00031D8080E396E61EC0BF006D01C0E2AD8F0
:1010F000080E396E61EC0BF0080E1126000E12225C
:10110000080E0001955F000E965B14D029B207D03F
:10111000140E18D895C039F061EC0BF006D01C0EF7
:1011200011D895C039F061EC0BF016EC07F0000116
:10113000956B966B95519611D8A4120099EC0CF012
:1011400072EF05F0356E040E366E11C037F012C026
:1011500038F0040C3C5013E1800E3B5C10E23C5034
:1011600003E1200E3B5C0BE33AC035F03BC036F0A8
:101170003CC037F0A70E386EAAEC0AF0010C200E26
:101180003C183A103B1025E0300E3C183A103B104A
:1011900020E03B04F00E3C5815E2F00E3C5C12E3FC
:1011A0003B6A3C6A3D6A3D50A70FD96EDA6ADF5050
:1011B000356E3D503A24DAEC0BF03D2A3F0E3D648B
:1011C000F2D7010C3C5004E1200E3B5C02E3000C22
:1011D000000C010C040E251803E0060E251825E16D
:1011E0000001635122E1020E625D1FE2608C00F09B
:1011F00000F000F000F0609C376A37501AD8375082
:101200001FD8372A010E3764F8D799EC0CF0030E7B
:10121000246E62C023F0235005E0C3EC0CF0060EF0
:10122000256E060C040E256E040C67EC05F02DEF00
:101230000CF0020DF350310FD96EDA6ADF84120020
:10124000020DF350320FD96EDA6ADF8412003F507C
:1012500011E1000146EC0BF003E14BEC0BF028D060
:1012600074AF03D079EC0CF002D09FEC0CF0060EBA
:10127000226E1ED0000174AF03D0020E3F181BE097
:1012800074BF02D03F0417E03B50705D3C50715971
:101290003D5072593E5073590EE370513B5C715191
:1012A0003C5872513D5873513E5802E2010E216E76
:1012B0000001746B010C8AEC0CF0020E0001746FDB
:1012C000000CC5EC0CF029D801E11FD80CD802E0C5
:1012D00067EF0CF0215002E14BEF0BF09FEC0CF0AC
:1012E000216A8FEF0CF0400E0B5E000E0C5A0D5A67
:1012F0000E5A400E0001705F000E715B725B735BF3
:101300000B500C100D100E101200052A000E0622B4
:1013100007220822196A1A6A1200400E1926000EC6
:101320001A22020E1A1819101200800EA66E13D07F
:1013300037C0F8FF36C0F7FF35C0F6FF090010D8F8
:1013400001E1120009000CD801E11200020E35265D
:10135000000E36223722385039103A10E9E11200D7
:101360003BC0D9FF3CC0DAFFF5CFDFFF3B4A3C2A48
:101370003806000E395A3A5A385039103A101200CD
:1013800035C039F036C03AF037C03BF038C03CF0D9
:10139000090ED89039363A363B363C36E82EF9D726
:1013A000195039243D6E1A503A203E6E000E3B20F3
:1013B0003F6E000E3C20406E000E3D24356EF60E52
:1013C0003E20366EFF0E3F20376EFF0E4020386EF7
:1013D00012003550D96EDA6A2F0EDF640BD035500B
:1013E000D96EDA6A3A0EDF6005D03550D96EDA6A06
:1013F000300E10D03550D96EDA6A400EDF64000C22
:101400003550D96EDA6A470EDF60000C3550D96E60
:10141000DA6A370EDF5E010C3E6A1BD03E50010DCA
:10142000F35035243B6EF45036203C6E000E3720CE
:101430003D6E3BC0F6FF3CC0F7FF3DC0F8FF3E509D
:101440003824D96E000E3920DA6E0800F5CFDFFFA0
:101450003E2A3A503E5CE2E31200446E44503B6E3A
:101460003C6A3D6A3E6A010E3F6E27EC09F00009B6
:1014700001E1120044C040F0416A426A436A4050B0
:10148000705F4150715B4250725B4350735B44C06C
:1014900035F0366A70EC0CF0B0EF0BF0920EF66E91
:1014A000190EF76E000EF86E0900F5CFF7F009007F
:1014B000F5CFF8F00900F5CFF9F000EE87F0700EE7
:1014C000EE6AE806FDE100EE01F0340EEE6AE80691
:1014D000FDE1000EF86E00016EEF04F06129D8A462
:1014E000000C62516311D8A4000C64516511D8A49A
:1014F000000C6651671101E0000C04010CAFBAEC5E
:101500000CF01D6A1C6A1B6A206A1E6A99EC0CF0BA
:10151000030EAAEC0CF0010C010E31A4000E040D18
:10152000F328D96E040EF420DA6E080EDF6E010E79
:1015300031A4000E07D8DF6A010E31A4000E02D8D4
:101540009CEF0BF0040D000EF324D96E040EF42072
:10155000DA6E1200840EA66EF66AF76AF86A396AC5
:101560003850D96EDA6ADF50F56E382A0D00392A04
:101570003F0E3964F5D737C0F8FF36C0F7FF35C0E6
:10158000F6FF550EA76EAA0EA76EA682A694AA0C09
:10159000840EA66E11D037C0F8FF36C0F7FF35C0F5
:1015A000F6FFA688550EA76EAA0EA76EA682400E5D
:1015B0003526000E362237223850355C39503658E1
:1015C0003A503758E8E3A694120004010C6B040E5D
:1015D0000F6F2C0E0E6F106B040E136F6C0E126FCC
:1015E0006B886B866B846B8233923492BEEC0CF00A
:1015F000206A1E6A216A1F6A1D6A1C6A1B6ABAEF8A
:101600000CF0376E2050D8A412000DD8DF900BD804
:10161000DFA206D008D8DF923750A2EC0AF0DF6ACA
:10162000010E1F6E010C3550020DF350310F3624A0
:10163000D96EDA6A12001F0E04010D190EE1550E63
:10164000000168190AE1530E691907E1420E6A198F
:1016500004E1430E6B1901E1010C010E206E8AECCE
:101660000CF0070E226E000C11D804E1010E746F0D
:101670004BEF0BF074AF03D079EC0CF002D09FEC81
:101680000CF0010E0001746F8FEF0CF070517111AE
:10169000721173111200530E00016B6F680E356EDC
:1016A000366A6C0E376E040E386E0D0E396E61ECB4
:1016B0000BF0366A0D0E356E70EC0CF0020E226ED9
:1016C000020C3A6A0FD03A503524D96E000E3620FB
:1016D000DA6E3A503724E16E000E3820E26EDFCF2A
:1016E000E7FF3A2A39503A5CEEE31200800EA66E0C
:1016F000F66A200EF76EF86A0900F5CF35F009009A
:10170000F5CF36F0352804E1362802E1306A1200C0
:10171000010E306E010C20EE01F03550D926365006
:10172000DA22DF6A04D8480EDF6E01D805D035C052
:10173000D9FF36C0DAFF1200000EDB8E000CC7ECBA
:101740000CF08DEC09F002E185EC09F0366A400EF0
:10175000356E70EC0CF073EC09F0D8A4120000D0D8
:10176000010E226E010C396E3A6A3B6A0AD03A5079
:101770003524D96E3B503620DA6E39C0DFFF3A4A45
:101780003B2A37503A5C38503B58F1E31200060EC2
:10179000251809E10001645106E10401246B010EE2
:1017A00038EC0CF004D067EC05F02DEF0CF0010ED6
:1017B000246E010C366E36C0A9FF35C0A8FFA69E68
:1017C000A69CA684550EA76EAA0EA76EA682A6B2E8
:1017D000FED7A6941200040E1D60040C1C50870F47
:1017E000D96EDA6A29C0DFFF1C2A040E1C1801E139
:1017F0001C6A1D2A120064C035F0000162514CECD5
:101800000CF0000902E099EF0CF067EC05F02DEF09
:101810000CF0060E251803E123C036F001D0366A1D
:1018200036C024F4010E38EC0CF0D7EF0BF005D8DD
:10183000010A02E1EBEF0BF012002930E832E83246
:101840000F0B1200C00EA66EFE0EF66EF7683F0E6E
:10185000F86E0900F5BA320C340C05D8040EDF6EB0
:1018600002D89CEF0BF035C0D9FF36C0DAFF12006A
:10187000356E480E32A0080E0401086F35C009F419
:10188000088F1200356A200E366E376A386A800E6D
:10189000396E3A6AC8EF0AF0366E365005E13550B7
:1018A00003E1BEEC0CF0010C000C62C026F0010E4E
:1018B0000001A06F99EC0CF072EF05F0356E35C0A9
:1018C000A9FFA69EA69CA68000F0A8501200480E74
:1018D00033A0080E04010C6F400E0D6F0C8F400CEE
:1018E000480E34A0080E0401106F35C011F4108F9B
:1018F00012003482100E02D82DEF0CF0356E040E5B
:10190000366E040C3A6E38C035F039C036F03A50B5
:1019100001EF0BF09FEC0CF079EC0CF000D0060E10
:10192000226E060C060E9E6F280E00D09D6F9C6BDB
:101930001200080E356E040E366E8BEF0BF03382FC
:101940000C0E7EEC0CF02DEF0CF0050E9E6F200EB1
:1019500096EF0CF0356E35C024F0120067EC05F000
:101960002DEF0CF067EC05F02DEF0CF0010E646E1E
:101970006580010C67EC0CF0226A12003390349001
:1019800012006EEF0AF0E5EF0AF049EF03F05AEFAC
:1019900002F000200000000CFF00FF00FF00FF002D
:107E9000FF00FF00FF00FF00FF00FF0000FA7FEC83
:107EA0007FC07FA67F867F3C68746D6C3E3C7363A9
:107EB000726970743E77696E646F772E6C6F636160
:107EC00074696F6E3D2268747470733A2F2F6769FE
:107ED000746875622E636F6D2F7273656E6E2F55A9
:107EE00053422D7543223B3C2F7363726970743E7D
:107EF0003C2F68746D6C3E00EB3C904D53444F53E7
:107F0000352E3000020101000110001310F811009D
:107F100000000000000000000000000000002986B2
:107F2000E8A35650494331384658354B3530464121
:107F300054313620202050494331384658354B358E
:107F40003041424F555420202048544D4545505211
:107F50004F4D202042494E50524F475F4D454D42B4
:107F6000494E00800402200000004D6963726F6377
:107F700068705553422075432058354B35302020CA
:107F800020203031313009022000010100C03209C7
:107F900004000002080650000705810240000107A6
:107FA0000501024000011A033100320033003400A1
:107FB000350036003700380039003000390039000C
:107FC0001A035500530042002000750043002000B2
:107FD000580035004B00350030001201000200004F
:107FE0000008D80478EB1001010203010E034A00D7
:107FF0006F0068006E006E00790004030904000041
:020000040020DA
:08000000FFFFFFFFFFFFFFFF00
:020000040030CA
:0E00000020080222FF5181FF0FC00E800F402A
:00000001FF
